{
  "contractName": "BadAuction",
  "abi": [
    {
      "constant": true,
      "inputs": [],
      "name": "getHighestBidder",
      "outputs": [
        {
          "name": "",
          "type": "address"
        }
      ],
      "payable": false,
      "stateMutability": "view",
      "type": "function"
    },
    {
      "constant": true,
      "inputs": [],
      "name": "getHighestBid",
      "outputs": [
        {
          "name": "",
          "type": "uint256"
        }
      ],
      "payable": false,
      "stateMutability": "view",
      "type": "function"
    },
    {
      "payable": true,
      "stateMutability": "payable",
      "type": "fallback"
    },
    {
      "constant": false,
      "inputs": [],
      "name": "bid",
      "outputs": [
        {
          "name": "",
          "type": "bool"
        }
      ],
      "payable": true,
      "stateMutability": "payable",
      "type": "function"
    },
    {
      "constant": false,
      "inputs": [],
      "name": "reduceBid",
      "outputs": [],
      "payable": false,
      "stateMutability": "nonpayable",
      "type": "function"
    }
  ],
  "bytecode": "0x6060604052341561000f57600080fd5b6102018061001e6000396000f300606060405260043610610061576000357c0100000000000000000000000000000000000000000000000000000000900463ffffffff1680623495a414610063578063057ae235146100b85780631998aeef146100cd5780634979440a146100ef575b005b341561006e57600080fd5b610076610118565b604051808273ffffffffffffffffffffffffffffffffffffffff1673ffffffffffffffffffffffffffffffffffffffff16815260200191505060405180910390f35b34156100c357600080fd5b6100cb610141565b005b6100d56101c6565b604051808215151515815260200191505060405180910390f35b34156100fa57600080fd5b6101026101cb565b6040518082815260200191505060405180910390f35b60008060009054906101000a900473ffffffffffffffffffffffffffffffffffffffff16905090565b60006001541015156101bf5760018054036001819055506000809054906101000a900473ffffffffffffffffffffffffffffffffffffffff1673ffffffffffffffffffffffffffffffffffffffff166108fc60019081150290604051600060405180830381858888f1935050505015156101ba57600080fd5b6101c4565b600080fd5b565b600090565b60006001549050905600a165627a7a7230582034cc70720aeba20b3b00622ec73f37d99d179fa664a69c0f4901b7c9d6a437da0029",
  "source": "pragma solidity 0.4.19;\n\nimport \"./AuctionInterface.sol\";\n\n/** @title BadAuction */\ncontract BadAuction is AuctionInterface {\n\n\n\t/* Bid function, vulnerable to reentrency attack.\n\t * Must return true on successful send and/or bid,\n\t * bidder reassignment\n\t * Must return false on failure and send people\n\t * their funds back\n\t */\n\tfunction bid() payable external returns (bool) {\n\t\t// YOUR CODE HERE\n\t}\n\n\n/* \tReduce bid function. Vulnerable to attack.\n\tAllows current highest bidder to reduce \n\ttheir bid by 1. Do NOT make changes here.\n\tInstead notice the vulnerabilities, and\n\timplement the function properly in GoodAuction.sol  */\n\t\n\tfunction reduceBid() external {\n\t    if (highestBid >= 0) {\n\t        highestBid = highestBid - 1;\n\t        require(highestBidder.send(1));\n\t    } else {\n\t    \trevert();\n\t    }\n\t}\n\n\n\t/* \tRemember. This fallback function\n\t\tgets invoked if somebody calls a\n\t\tfunction that does not exist in this\n\t\tcontract. How do we send people \n\t\ttheir money back?  */\n\n\tfunction () payable {\n\t\t// YOUR CODE HERE\n\t}\n\n}\n",
  "sourcePath": "/Users/lukestrgar/Documents/blockchain-at-berkeley/security-lab/contracts/BadAuction.sol",
  "compiler": {
    "name": "solc",
    "version": "0.4.19+commit.c4cbbb05.Emscripten.clang"
  },
  "schemaVersion": "1.0.1",
  "updatedAt": "2018-02-20T05:02:06.621Z"
}