{
  "contractName": "BadAuctionSolution",
  "abi": [
    {
      "constant": true,
      "inputs": [],
      "name": "getHighestBidder",
      "outputs": [
        {
          "name": "",
          "type": "address"
        }
      ],
      "payable": false,
      "stateMutability": "view",
      "type": "function"
    },
    {
      "constant": true,
      "inputs": [],
      "name": "getHighestBid",
      "outputs": [
        {
          "name": "",
          "type": "uint256"
        }
      ],
      "payable": false,
      "stateMutability": "view",
      "type": "function"
    },
    {
      "payable": true,
      "stateMutability": "payable",
      "type": "fallback"
    },
    {
      "constant": false,
      "inputs": [],
      "name": "bid",
      "outputs": [
        {
          "name": "",
          "type": "bool"
        }
      ],
      "payable": true,
      "stateMutability": "payable",
      "type": "function"
    },
    {
      "constant": false,
      "inputs": [],
      "name": "reduceBid",
      "outputs": [],
      "payable": false,
      "stateMutability": "nonpayable",
      "type": "function"
    }
  ],
  "bytecode": "0x6060604052341561000f57600080fd5b6103468061001e6000396000f300606060405260043610610061576000357c0100000000000000000000000000000000000000000000000000000000900463ffffffff1680623495a414610066578063057ae235146100bb5780631998aeef146100d05780634979440a146100f2575b600080fd5b341561007157600080fd5b61007961011b565b604051808273ffffffffffffffffffffffffffffffffffffffff1673ffffffffffffffffffffffffffffffffffffffff16815260200191505060405180910390f35b34156100c657600080fd5b6100ce610144565b005b6100d86101c9565b604051808215151515815260200191505060405180910390f35b34156100fd57600080fd5b610105610310565b6040518082815260200191505060405180910390f35b60008060009054906101000a900473ffffffffffffffffffffffffffffffffffffffff16905090565b60006001541015156101c25760018054036001819055506000809054906101000a900473ffffffffffffffffffffffffffffffffffffffff1673ffffffffffffffffffffffffffffffffffffffff166108fc60019081150290604051600060405180830381858888f1935050505015156101bd57600080fd5b6101c7565b600080fd5b565b60006001543411151561021f573373ffffffffffffffffffffffffffffffffffffffff166108fc349081150290604051600060405180830381858888f19350505050151561021657600080fd5b6000905061030d565b6000809054906101000a900473ffffffffffffffffffffffffffffffffffffffff1673ffffffffffffffffffffffffffffffffffffffff1660015460405160006040518083038185876187965a03f19250505015156102c1573373ffffffffffffffffffffffffffffffffffffffff166108fc349081150290604051600060405180830381858888f1935050505015156102b857600080fd5b6000905061030d565b34600181905550336000806101000a81548173ffffffffffffffffffffffffffffffffffffffff021916908373ffffffffffffffffffffffffffffffffffffffff160217905550600190505b90565b60006001549050905600a165627a7a72305820ab121514453f20456c15185ba49e759e888de05e503792d3358634747bcc277d0029",
  "source": "pragma solidity 0.4.19;\n\nimport \"./AuctionInterface.sol\";\n\n/** @title BadAuction */\ncontract BadAuctionSolution is AuctionInterface {\n\n\t/* Bid function, vulnerable to attack\n\t * Must return true on successful send and/or bid,\n\t * bidder reassignment\n\t * Must return false on failure and send people\n\t * their funds back\n\t */\n\tfunction bid() payable external returns (bool) {\n\t\tif (msg.value <= highestBid) {\n\t\t    require(msg.sender.send(msg.value));\n\t\t    return false;\n\t\t} else {\n\t\t    if (!highestBidder.call.value(highestBid)()) {\n\t\t        require(msg.sender.send(msg.value));\n\t\t        return false;\n\t\t    } else {\n\t\t        highestBid = msg.value;\n\t\t        highestBidder = msg.sender;\n\t\t        return true;\n\t\t    }\n\t\t}\n\t}\n\t\n\n/* \tReduce bid function. Vulnerable to attack.\n\tAllows current highest bidder to reduce \n\ttheir bid by 1. Do NOT make changes here.\n\tInstead notice the vulnerabilities, and\n\timplement the function properly in GoodAuction.sol  */\n\t\n\tfunction reduceBid() external {\n\t    if (highestBid >= 0) {\n\t        highestBid = highestBid - 1;\n\t        require(highestBidder.send(1));\n\t    } else {\n\t    \trevert();\n\t    }\n\t}\n\n\t/* Give people their funds back */\n\tfunction () payable {\n\t\trevert();\n\t}\n}\n",
  "sourcePath": "/Users/lukestrgar/Documents/blockchain-at-berkeley/security-lab/contracts/BadAuctionSolution.sol",
  "compiler": {
    "name": "solc",
    "version": "0.4.19+commit.c4cbbb05.Emscripten.clang"
  },
  "schemaVersion": "1.0.1",
  "updatedAt": "2018-02-20T05:02:00.491Z"
}