{
  "contractName": "GoodAuctionSolution",
  "abi": [
    {
      "constant": true,
      "inputs": [],
      "name": "getHighestBidder",
      "outputs": [
        {
          "name": "",
          "type": "address"
        }
      ],
      "payable": false,
      "stateMutability": "view",
      "type": "function"
    },
    {
      "constant": true,
      "inputs": [],
      "name": "getHighestBid",
      "outputs": [
        {
          "name": "",
          "type": "uint256"
        }
      ],
      "payable": false,
      "stateMutability": "view",
      "type": "function"
    },
    {
      "payable": true,
      "stateMutability": "payable",
      "type": "fallback"
    },
    {
      "constant": false,
      "inputs": [],
      "name": "bid",
      "outputs": [
        {
          "name": "",
          "type": "bool"
        }
      ],
      "payable": true,
      "stateMutability": "payable",
      "type": "function"
    },
    {
      "constant": false,
      "inputs": [],
      "name": "withdrawRefund",
      "outputs": [
        {
          "name": "",
          "type": "bool"
        }
      ],
      "payable": false,
      "stateMutability": "nonpayable",
      "type": "function"
    },
    {
      "constant": true,
      "inputs": [],
      "name": "getMyBalance",
      "outputs": [
        {
          "name": "",
          "type": "uint256"
        }
      ],
      "payable": false,
      "stateMutability": "view",
      "type": "function"
    },
    {
      "constant": false,
      "inputs": [],
      "name": "reduceBid",
      "outputs": [],
      "payable": false,
      "stateMutability": "nonpayable",
      "type": "function"
    }
  ],
  "bytecode": "0x6060604052341561000f57600080fd5b61051f8061001e6000396000f300606060405260043610610077576000357c0100000000000000000000000000000000000000000000000000000000900463ffffffff1680623495a41461007c578063057ae235146100d1578063110f8874146100e65780631998aeef146101135780634979440a146101355780634c7389091461015e575b600080fd5b341561008757600080fd5b61008f610187565b604051808273ffffffffffffffffffffffffffffffffffffffff1673ffffffffffffffffffffffffffffffffffffffff16815260200191505060405180910390f35b34156100dc57600080fd5b6100e46101b0565b005b34156100f157600080fd5b6100f9610266565b604051808215151515815260200191505060405180910390f35b61011b610380565b604051808215151515815260200191505060405180910390f35b341561014057600080fd5b6101486104a2565b6040518082815260200191505060405180910390f35b341561016957600080fd5b6101716104ac565b6040518082815260200191505060405180910390f35b60008060009054906101000a900473ffffffffffffffffffffffffffffffffffffffff16905090565b6000809054906101000a900473ffffffffffffffffffffffffffffffffffffffff1673ffffffffffffffffffffffffffffffffffffffff163373ffffffffffffffffffffffffffffffffffffffff1614151561020b57610264565b600060015411156102635760018054036001819055503373ffffffffffffffffffffffffffffffffffffffff166108fc60019081150290604051600060405180830381858888f19350505050151561026257600080fd5b5b5b565b600080600260003373ffffffffffffffffffffffffffffffffffffffff1673ffffffffffffffffffffffffffffffffffffffff1681526020019081526020016000205490506000600260003373ffffffffffffffffffffffffffffffffffffffff1673ffffffffffffffffffffffffffffffffffffffff168152602001908152602001600020819055503373ffffffffffffffffffffffffffffffffffffffff166108fc829081150290604051600060405180830381858888f1935050505015610333576001915061037c565b80600260003373ffffffffffffffffffffffffffffffffffffffff1673ffffffffffffffffffffffffffffffffffffffff16815260200190815260200160002081905550600091505b5090565b6000600154341115156103e35734600260003373ffffffffffffffffffffffffffffffffffffffff1673ffffffffffffffffffffffffffffffffffffffff168152602001908152602001600020600082825401925050819055506000905061049f565b600154600260008060009054906101000a900473ffffffffffffffffffffffffffffffffffffffff1673ffffffffffffffffffffffffffffffffffffffff1673ffffffffffffffffffffffffffffffffffffffff16815260200190815260200160002060008282540192505081905550336000806101000a81548173ffffffffffffffffffffffffffffffffffffffff021916908373ffffffffffffffffffffffffffffffffffffffff16021790555034600181905550600190505b90565b6000600154905090565b6000600260003373ffffffffffffffffffffffffffffffffffffffff1673ffffffffffffffffffffffffffffffffffffffff168152602001908152602001600020549050905600a165627a7a72305820a64feb299ccf342b2d0cdead797ce17fa719681bdc28cc7f69794479edadf4e00029",
  "source": "pragma solidity 0.4.19;\nimport \"./AuctionInterface.sol\";\n\n/** @title GoodAuction */\ncontract GoodAuctionSolution is AuctionInterface {\n\t/* New data structure, keeps track of refunds owed to ex-highest bidders */\n\tmapping(address => uint) refunds;\n\n\n\t/* \tBid function, now shifted to pull paradigm\n\t\tMust return true on successful send and/or bid, bidder\n\t\treassignment. Must return false on failure and \n\t\tallow people to retrieve their funds  */\n\tfunction bid() payable external returns(bool) {\n\t\tif (msg.value <= highestBid) {\n\t\t\trefunds[msg.sender] += msg.value;\n\t\t    return false;\n\t\t} else {\n\t\t\trefunds[highestBidder] += highestBid;\n\t\t\thighestBidder = msg.sender;\n\t\t\thighestBid = msg.value;\n\t\t\treturn true;\n\t\t}\n\t}\n\n\t/*  Implement withdraw function to complete new \n\t    pull paradigm. Returns true on successful \n\t    return of owed funds and false on failure\n\t    or no funds owed.  */\n\tfunction withdrawRefund() external returns(bool) {\n\t\tuint refundVal = refunds[msg.sender];\n\t\trefunds[msg.sender] = 0;\n\t\tif (msg.sender.send(refundVal)) {\n\t\t\treturn true;\n\t\t} else {\n\t\t\trefunds[msg.sender] = refundVal;\n\t\t\treturn false;\n\t\t}\n\t}\n\n\t/*  Allow users to check the amount they are owed\n\t\tbefore calling withdrawRefund(). Function returns\n\t\tamount owed.  */\n\tfunction getMyBalance() constant external returns(uint) {\n\t\treturn refunds[msg.sender];\n\t}\n\n\n\t/* \tConsider implementing this modifier\n\t\tand applying it to the reduceBid function \n\t\tyou fill in below. Only the highest bidder\n\t\tshould be able to reduce their bid, right?  */\n\tmodifier canReduce() { \n\t\tif (msg.sender != highestBidder) {\n\t\t\treturn;\n\t\t}\n\t\t_; \n\t}\n\n\n\tfunction reduceBid()\n\t\texternal\n\t\tcanReduce()\n\t{\n\t\tif (highestBid > 0) {\n\t        highestBid = highestBid - 1;\n\t        require(msg.sender.send(1));\n\t    } \n\t}\n\n\t/* Give people their funds back */\n\tfunction () payable {\n\t\trevert();\n\t}\n}",
  "sourcePath": "/Users/lukestrgar/Documents/blockchain-at-berkeley/security-lab/contracts/GoodAuctionSolution.sol",
  "compiler": {
    "name": "solc",
    "version": "0.4.19+commit.c4cbbb05.Emscripten.clang"
  },
  "schemaVersion": "1.0.1",
  "updatedAt": "2018-02-20T05:02:00.493Z"
}